:100000000C942A000C94E4020C940B030C9432031D
:100010000C9447000C9447000C9447000C9407057F
:100020000C9433050C9447000C9447000C94470043
:100030000C9447000C9447000C9447000C94470024
:100040000C9489000C9447000C94B8030C9447005E
:100050000C94470011241FBECFE5D8E0DEBFCDBF12
:1000600010E0A0E6B0E0E0EFFDE002C005900D92E8
:10007000A236B107D9F710E0A2E6B0E001C01D92A8
:10008000A239B107E1F70E9422060C94F6060C94FF
:10009000000080916200882319F4349BFECF349ACB
:1000A00024B135B1C9010895882389F43E9A3F9857
:1000B0003D9887B187B986B1887F86B986B1862B8E
:1000C00086B9379A413041F010926200089581302C
:1000D00079F73E9A3F9AECCF40936200339A0895A5
:1000E00097B1907E97B997B1982B97B9683051F036
:1000F00080B78F7180BF80B76295660F607E862B58
:1001000080BF359A369A0895909383008093820039
:1001100008951F920F920FB60F9211242F933F93C1
:100120004F935F936F937F938F939F93AF93BF93FF
:10013000EF93FF93E0918200F09183000995FF9186
:10014000EF91BF91AF919F918F917F916F915F914F
:100150004F913F912F910F900FBE0F901F901895C8
:10016000382F8830D8F44130D9F04423B9F46130C5
:10017000C1F1613068F42AB381E090E002C0880FD9
:10018000991F3A95E2F7809582238ABB81E0089512
:10019000623009F44CC0633009F43CC080E008953B
:1001A000613009F451C0613060F42AB381E090E01D
:1001B00002C0880F991F3A95E2F7282B2ABB81E0ED
:1001C00008956230D9F0633049F721B381E090E0BF
:1001D00002C0880F991F3A95E2F7282B21BB81E0D6
:1001E000089527B381E090E002C0880F991F3A95E7
:1001F000E2F78095822387BB81E0089524B381E0F4
:1002000090E002C0880F991F3A95E2F7282B24BB93
:1002100081E0089521B381E090E002C0880F991F2A
:100220003A95E2F78095822381BB81E0089524B35B
:1002300081E090E002C0880F991F3A95E2F780951F
:10024000822384BB81E0089527B381E090E002C05F
:10025000880F991F3A95E2F7282B27BB81E0089574
:10026000382F613059F1613030F06230C9F16330BC
:10027000A1F080E00895413009F44FC04423C9F74C
:100280002BB381E090E002C0880F991F3A95E2F706
:10029000809582238BBB81E00895413091F1442306
:1002A00041F722B381E090E002C0880F991F3A9590
:1002B000E2F78095822382BB81E00895413009F402
:1002C00044C04423B1F628B381E090E002C0880F17
:1002D000991F3A95E2F78095822388BB81E00895C3
:1002E000413039F1442329F625B381E090E002C082
:1002F000880F991F3A95E2F78095822385BB81E0AC
:10030000089522B381E090E002C0880F991F3A95CA
:10031000E2F7282B22BB81E008952BB381E090E027
:1003200002C0880F991F3A95E2F7282B2BBB81E07A
:10033000089525B381E090E002C0880F991F3A9597
:10034000E2F7282B25BB81E0089528B381E090E0F7
:1003500002C0880F991F3A95E2F7282B28BB81E04D
:100360000895282FFA01883098F4613099F06130AF
:1003700058F489B390E002C0959587952A95E2F7E5
:100380008170808381E00895623041F0633021F014
:1003900080E0089586B3EECF80B3ECCF83B3EACF8D
:1003A000382F883040F46130A1F0613030F0623095
:1003B00041F16330D1F080E008952BB381E090E00B
:1003C00002C0880F991F3A95E2F728272BBB81E0DE
:1003D000089528B381E090E002C0880F991F3A95F4
:1003E000E2F7282728BB81E0089522B381E090E05E
:1003F00002C0880F991F3A95E2F7282722BB81E0B7
:10040000089525B381E090E002C0880F991F3A95C6
:10041000E2F7282725BB81E00895813061F0813023
:1004200018F46ABB81E00895823041F08330D1F73F
:1004300061BB81E0089567BB81E0089564BB81E002
:100440000895813061F0813018F46BBB81E008952C
:10045000823041F08330D1F762BB81E0089568BB00
:1004600081E0089565BB81E00895603FA1F06F30A1
:1004700011F080E008954F70813081F08130A8F054
:100480008230D1F08330A9F781B311BA81B3482B00
:1004900041BB81E00895407F813081F787B317BA6F
:1004A00087B3482B47BB81E008958AB31ABA8AB351
:1004B000482B4ABB81E0089584B314BA84B3482B17
:1004C00044BB81E00895603FA1F06F3011F080E0FF
:1004D00008954F70813081F08130A8F08230D1F0E2
:1004E0008330A9F782B312BA82B3482B42BB81E0B2
:1004F0000895407F813081F788B318BA88B3482BBC
:1005000048BB81E008958BB31BBA8BB3482B4BBB20
:1005100081E0089585B315BA85B3482B45BB81E0CA
:10052000089585B78C7F85BF85B7826085BF8BB7FF
:1005300080648BBF089585B7837F85BF85B788604A
:1005400085BF8BB780688BBF089584B78F7B84BFCE
:1005500084B784BF8BB780628BBF08958BB78F7BC6
:100560008BBF08958BB78F778BBF08958BB78F7D27
:100570008BBF089595B79C7F95BF95B7982B95BF76
:10058000089595B7937F95BF95B7880F880F982BDF
:1005900095BF089594B79F7B94BF94B78295880FB9
:1005A000880F807C982B94BF089590938700809348
:1005B0008600089590938900809388000895909311
:1005C0008B0080938A0008951F920F920FB60F92AE
:1005D00011242F933F934F935F936F937F938F9348
:1005E0009F93AF93BF93EF93FF93E0918600F091B9
:1005F00087000995FF91EF91BF91AF919F918F91E6
:100600007F916F915F914F913F912F910F900FBE0E
:100610000F901F9018951F920F920FB60F921124F2
:100620002F933F934F935F936F937F938F939F93FA
:10063000AF93BF93EF93FF93E0918800F09189000F
:100640000995FF91EF91BF91AF919F918F917F910C
:100650006F915F914F913F912F910F900FBE0F902F
:100660001F9018951F920F920FB60F9211242F937F
:100670003F934F935F936F937F938F939F93AF932A
:10068000BF93EF93FF93E0918A00F0918B0009955F
:10069000FF91EF91BF91AF919F918F917F916F915A
:1006A0005F914F913F912F910F900FBE0F901F9030
:1006B00018958FB780688FBF08958FB78F778FBFDA
:1006C000089587E062E040E00E943001089585E0EF
:1006D00062E040E00E943001089587E062E041E07E
:1006E0000E94300185E062E041E00E9430010895FF
:1006F00086E062E040E00E943001089587E062E019
:1007000041E00E94B00085E062E041E00E94B0005C
:10071000089586E062E041E00E94B0000895809173
:100720006300893030F087E062E00E94D0011092CF
:10073000630086E062E041E00E9430010895E199A3
:10074000FECF07B600FCFDCF93709FBB8EBB6DBB89
:10075000E29AE19A0895E199FECF93709FBB8EBB18
:10076000E09A8DB3089590938D0080938C00089546
:100770001F920F920FB60F9211242F933F934F9316
:100780005F936F937F938F939F93AF93BF93EF93F9
:10079000FF93E0918C00F0918D000995FF91EF910E
:1007A000BF91AF919F918F917F916F915F914F9189
:1007B0003F912F910F900FBE0F901F901895809131
:1007C00063008F5F8093630080917C00882361F0D9
:1007D000833359F08F5F80937C0080917F00833159
:1007E00039F08F5F80937F00089510927C00089508
:1007F00010927F0008950E949705809381000895CC
:1008000080917C00882331F081E080937C0080938C
:100810007D00089581E080937C00089580917C00A4
:10082000882331F081E080937C0080937E000895DE
:1008300081E080937C00089580916400882339F0E2
:10084000109264000E94B2020E94B602089581E0F4
:10085000809364000E949B020E94A502089582E09A
:1008600061E040E00E94B00083E063E040E00E946D
:10087000B00082E063E040E00E94B000089580E0B4
:1008800060EF40E00E94630281E061E041E00E948D
:10089000300180E061E041E00E9430010895FF9264
:1008A0000F931F93282F6AE00E94B406F92E822F1F
:1008B0000E94B406482F4295407F482B80E060EFAD
:1008C0000E94630280E061E040E00E94300100E2AB
:1008D0001EE4C8010197F1F780E061E041E00E9469
:1008E00030014F2D4295407F4F2980E060EF0E94FC
:1008F000630281E061E040E00E943001C80101979D
:10090000F1F781E061E041E00E9430011F910F9119
:10091000FF90089581E061E041E00E94B00080E036
:1009200061E041E00E94B00081E061E041E00E94AE
:10093000300180E061E041E00E94300180E060EF42
:100940004FEF0E9435020895982F8EB580618EBDBD
:100950008EB588608EBD8FB58D7F8FBD8FB58E7F34
:100960008FBD913069F09230D1F08EB5887F8EBD09
:100970008EB584608EBD913061F09230C9F00895DB
:1009800089B7806189BF8EB5887F8EBD8EB5846042
:100990008EBD8FB58F738FBD8FB58FBD089589B70D
:1009A000886089BF8EB5887F8EBD8EB584608EBD10
:1009B0008FB58F7C8FBD8FB58FBD0895813031F09D
:1009C000823009F0089579BD68BD08957BBD6ABD88
:1009D000089597BD86BD08952CB53DB5C90108950C
:1009E000882321F48EB58F7B8EBD08958130E9F781
:1009F0008EB580648EBD089586B597B5BC0180E044
:100A000090E0089590938F0080938E0008951F9238
:100A10000F920FB60F9211242F933F934F935F9332
:100A20006F937F938F939F93AF93BF93EF93FF93B6
:100A3000E0918E00F0918F000995FF91EF91BF91A9
:100A4000AF919F918F917F916F915F914F913F9166
:100A50002F910F900FBE0F901F90189590939100BB
:100A60008093900008951F920F920FB60F92112459
:100A70002F933F934F935F936F937F938F939F93A6
:100A8000AF93BF93EF93FF93E0919000F0919100AB
:100A90000995FF91EF91BF91AF919F918F917F91B8
:100AA0006F915F914F913F912F910F900FBE0F90DB
:100AB0001F90189586E063E040E00E94B00086E059
:100AC00063E041E00E9430018EB5887F8EBD8EB517
:100AD00084608EBD8EB58F7B8EBD8EB58F778EBDBB
:100AE0008EB58F7E8EBD8EB5877F8EBD8FB58D7F87
:100AF0008FBD8FB58E7F8FBD89B7846089BF89B761
:100B0000806289BF08950E944900A0E0B0E0BC0166
:100B1000CD0128E833E140E050E00E94950620E056
:100B200038E240E050E00E94D406C9010895CF9316
:100B3000DF9380917B00C82FD0E00E948305CC0F0B
:100B4000DD1FC959DF4F9983888380917B008930ED
:100B500051F08F5F80937B008091650090916600DB
:100B6000DF91CF910895E7E6F0E020E030E0819159
:100B70009191280F391F80E0EB37F807C1F71092E9
:100B80007B00C9016AE070E00E94C00670936600B5
:100B9000609365008091650090916600DF91CF9130
:100BA000089581E060E040E00E94B00080E066E0EF
:100BB00041E00E94540081E065E00E9470008AE6F6
:100BC00098E10E94E90482E00E94A4040E94590373
:100BD000089580917D008130F1F080917E00813018
:100BE00051F080917F008A3008F008958091600074
:100BF0000E944F04089580937C0010927E008091A3
:100C000060008332C1F085508093600080917F0046
:100C10008A3058F7EBCF80937C0010927D00809152
:100C200060008B3441F08B5F8093600080917F0087
:100C30008A30D8F6DBCF8093600080917F008A30C5
:100C4000A0F6D4CF8CE194E00E94D50280E094E03D
:100C50000E94DA028EE094E00E94DF028FED93E0C2
:100C60000E942E058BEF93E00E9484000E947E0379
:100C70000E9489038DE790E00E94AB03809380007F
:100C80008F3F09F450C0809360000E948A040E9444
:100C90002F040E9491020E94D10580916400882354
:100CA00061F40E943F040E9467030E9478030E943F
:100CB0006103809164008823A1F3813081F78091E2
:100CC0007C008823B9F480916000282F30E0809167
:100CD0008100482F50E0C901049748175907CCF00C
:100CE0002C5F3F4F24173507CCF0809181000E9484
:100CF0004F04D3CF0E9467030E9478030E946103D0
:100D00000E94E9058DE790E0609160000E949F03DA
:100D1000C4CF0E948F030E946703E7CF0E946D0338
:100D20000E947803E2CF8CE3AECF629FD001739F25
:100D3000F001829FE00DF11D649FE00DF11D929F77
:100D4000F00D839FF00D749FF00D659FF00D9927B6
:100D5000729FB00DE11DF91F639FB00DE11DF91FDA
:100D6000BD01CF0111240895991B79E004C0991F9A
:100D7000961708F0961B881F7A95C9F780950895F5
:100D8000AA1BBB1B51E107C0AA1FBB1FA617B707B1
:100D900010F0A61BB70B881F991F5A95A9F78095CD
:100DA0009095BC01CD010895A1E21A2EAA1BBB1B90
:100DB000FD010DC0AA1FBB1FEE1FFF1FA217B30727
:100DC000E407F50720F0A21BB30BE40BF50B661F3D
:100DD000771F881F991F1A9469F760957095809501
:100DE00090959B01AC01BD01CF010895F894FFCF10
:020DF0003C00C5
:00000001FF
